:10000000F8FF02209901000021090000D908000032
:10001000D9080000D9080000D9080000D90800005C
:10002000D9080000D9080000D90800002109000003
:1000300021090000D90800006518000069180000B7
:100040002109000021090000210900002109000008
:1000500021090000210900002109000021090000F8
:1000600021090000210900002109000021090000E8
:1000700021090000210900002109000021090000D8
:1000800021090000210900002109000021090000C8
:1000900021090000210900002109000021090000B8
:1000A00021090000210900002109000021090000A8
:1000B0002109000021090000210900002109000098
:1000C0002109000021090000210900002109000088
:1000D0002109000021090000210900002109000078
:1000E0002109000021090000210900002109000068
:1000F0002109000021090000210900002109000058
:100100002109000021090000210900002109000047
:10011000210900000D0D0000210900002109000047
:100120002109000021090000210900002109000027
:100130002109000021090000210900002109000017
:100140002109000021090000210900002109000007
:1001500021090000210900002109000021090000F7
:1001600021090000210900002109000021090000E7
:1001700021090000210900002109000021090000D7
:1001800021090000210900002109000021090000C7
:100190002109000021090000584B4CF2205210B5F3
:1001A0001A804DF628121A8000BF00BF00F0BCFB79
:1001B000534B4FF030621A60524A9A60524ADA60EA
:1001C000524B4FF470021A60514A136813F4807353
:1001D00004D150490B604FF4A85313604E4B1A786A
:1001E000110703D51A7842F008021A704B4B4C499C
:1001F0002A221A704B4A4C4B8B4204D252F8040FFD
:1002000043F8040BF8E7494B494900228B4202D2DC
:1002100043F8042BFAE74749474A002352F82300E2
:1002200041F823000133662BF8D1444B444A802126
:1002300003F8011B9342FBD1424B3E4A1A60424BEA
:100240008A221A70A3F5805324225A70A0221A70B1
:100250009A799207FCD59A79D406FCD43B4A9379D3
:1002600003F00C03082B394BF9D103221A714622F3
:100270005A719A799006FCD5344A9179334B4906E4
:10028000FBD5334A4FF08271116009215160202261
:100290001A709A7902F00C020C2AFAD12D4B2E4AD0
:1002A0001A602E4B2E4A1A6000225A60072243F829
:1002B000042C2C4AC3F80C2D62B600F00DFC154B33
:1002C0001B68DA0705D5284800F098FB274B284A19
:1002D0001A60284B1B785B0609D5244C244B2268F6
:1002E0009A4204D1204800F089FB0023236000F0EB
:1002F00021FB01F097FB00F013FAFEE70E2005400A
:1003000030800440823F04000100002B88ED00E0B3
:1003100010D0034014D0034002D0074000E0074053
:10032000D00BFF1FE81D0000F806FF1FD00BFF1FBA
:10033000300DFF1F0002FF1F0000000000E400E07E
:1003400056E400E008ED00E00050064000400640A2
:100350004480044004800440C010050014E000E024
:10036000BFD4010000002020F16B45631CE0034076
:10037000A5C3945A00F00740FFFFFFFFFFFFFFFFF8
:10038000FFFFFFFFFFFFFFFFFFFFFFFFFFFFFFFF7D
:10039000FFFFFFFFFFFFFFFFFFFFFFFFFFFFFFFF6D
:1003A000FFFFFFFFFFFFFFFFFFFFFFFFFFFFFFFF5D
:1003B000FFFFFFFFFFFFFFFFFFFFFFFFFFFFFFFF4D
:1003C000FFFFFFFFFFFFFFFFFFFFFFFFFFFFFFFF3D
:1003D000FFFFFFFFFFFFFFFFFFFFFFFFFFFFFFFF2D
:1003E000FFFFFFFFFFFFFFFFFFFFFFFFFFFFFFFF1D
:1003F000FFFFFFFFFFFFFFFFFFFFFFFFFFFFFFFF0D
:10040000FFFFFFFFFFFFFFFFFFFFFFFFDEF9FFFF23
:1004100010B5054C237833B9044B13B10448AFF33E
:1004200000800123237010BDD00BFF1F00000000CF
:10043000EC1D0000084B10B51BB108490848AFF38C
:1004400000800848036803B910BD074B002BFBD0A0
:10045000BDE81040184700BF00000000D40BFF1F8C
:10046000EC1D0000D00BFF1F0000000000220280E6
:10047000704700BF4FF48053038070470088704777
:10048000008870B5CC18844210DC6BB1013B9BB284
:1004900001331446D5188E1A01223119204614440E
:1004A00000F0BAF8AC42F7D1012070BD002070BD59
:1004B00000F06CB82DE9F8432248234DDFF8909006
:1004C00000AFFFF7D7FF1F48FFF7D8FFC31D23F08A
:1004D0000703ADEB030D804601210D2000F0A8FAC3
:1004E0001A482E68DFF86CE06A4640F2EE2C01787C
:1004F00049B19EF80030DB0705D52B68D9F800100C
:100500005B1A0E2B06D829680478891BBCB1B1F59B
:10051000FA6FECD9B8F1000F09D008F1FF3312FAE5
:1005200083F3511EFF2001F8010F9942FBD143468E
:1005300000210448FFF7A4FFBD46BDE8F8836145EC
:10054000D5D9E7E7EC0BFF1FF00BFF1FD40CFF1F03
:100550002C0DFF1FE80CFF1F08B501210D2000F036
:1005600061FA4FF47A7000F069FA0D20002100F072
:1005700059FA4FF47A70BDE8084000F05FBA00BF46
:100580000148FFF773BF00BFEC0BFF1FF0B585B04C
:1005900010221949684600F0CBF8184A12789107E2
:1005A0001DD51749174D0A7812F0700218BF0A704E
:1005B0001549164A0346802715480F700026122455
:1005C00005212E700470117072B60D4C43F00103BA
:1005D0002046984762B6237813F0700309D10D4B7B
:1005E000064901E0013B02D00A78D207FAD505B0EE
:1005F000F0BD237005B0F0BD601B0000010002409B
:100600000000024004000240070002400A000240CD
:100610000B000240410D0300B1F5805F6CD2F0B5D4
:100620003D4B1B78DB0785B00C4666D5B2F5805F85
:1006300003D28B18B3F5805F6AD3C1F58052374E71
:10064000354B14F0030118D0022939D004F1A0551C
:10065000077829788F4200F1010008D0317811F035
:10066000700118BF31702F701978C907FCD5013A95
:100670000134002AE5D105B0F0BD032A20D9057860
:1006800090F801C0817890F803E004F1A05745EAA2
:100690000C2545EA01413D6841EA0E61A94200F19D
:1006A000040008D0357815F0700518BF3570396032
:1006B0001978CF07FCD5043A0434002AC1D1DAE70F
:1006C000012AC3D004F1A05790F801E001783D88D9
:1006D00041EA0E218D4200F1020008D0357815F074
:1006E000700518BF357039801978CD07FCD5023AEE
:1006F0000234002AA5D1BEE770470392029101900F
:10070000FFF744FF01A807C8B2F5805F91D394E7D3
:10071000002A94D1AFE700BF010002400000024070
:1007200008B5FFF7C7FEFFF717FF01F003F8FAE778
:1007300001B441EA000313F003036FD1403A41D3FF
:1007400051F8043B40F8043B51F8043B40F8043BAB
:1007500051F8043B40F8043B51F8043B40F8043B9B
:1007600051F8043B40F8043B51F8043B40F8043B8B
:1007700051F8043B40F8043B51F8043B40F8043B7B
:1007800051F8043B40F8043B51F8043B40F8043B6B
:1007900051F8043B40F8043B51F8043B40F8043B5B
:1007A00051F8043B40F8043B51F8043B40F8043B4B
:1007B00051F8043B40F8043B51F8043B40F8043B3B
:1007C000403ABDD2303211D351F8043B40F8043BDB
:1007D00051F8043B40F8043B51F8043B40F8043B1B
:1007E00051F8043B40F8043B103AEDD20C3205D3EB
:1007F00051F8043B40F8043B043AF9D204320AD0E1
:10080000D2071CBF11F8013B00F8013B03D30B7862
:1008100003704B78437001BC704700BF0C2A4AD369
:1008200010F0030311D0C3F10403D21ADB071CBF7D
:1008300011F8013B00F8013B07D311F8013B00F828
:10084000013B11F8013B00F8013B11F003033FF4B9
:1008500075AF30B4043AC91AC3F1040C51F8044B13
:10086000022B19D0032B0BD0240A51F8043B1D0690
:1008700044EA050440F8044B1C46043AF4D216E05E
:10088000240E51F8043B1D0244EA050440F8044BD1
:100890001C46043AF4D20AE0240C51F8043B1D042F
:1008A00044EA050440F8044B1C46043AF4D20432EE
:1008B000B1EB0C0130BC043AA0D3013A11F8013B72
:1008C00000F8013BF9D20B7803704B7843708B78BA
:1008D000837001BC704700BF08B5104C08E0236866
:1008E00059050DD423681A050FD42368DB0411D4ED
:1008F00023685803F3D500F009FA23685905F1D5A8
:1009000000F00EF823681A05EFD500F009F8236807
:10091000DB04EDD500F004F8EAE700BF34800440C2
:1009200008B5FFF7D9FF00BF014B10221A807047AE
:1009300000200540704700BF10B4114B53F8302021
:1009400092F8804234B1012379B182F880305DF8A9
:10095000044B704703EBC0035B681A6851B922F07F
:1009600002021A605DF8044B704782F800315DF8AE
:10097000044B704742F003021A605DF8044B704765
:10098000701B00001C4A02EBC00301295B6811D0F8
:1009900004291BD052F83000002280F8802229B1AF
:1009A000022920D0032922D01A6070474FF48072A8
:1009B0001A60704752F830004FF4A27280F880122B
:1009C0001A601A6822F020021A60704752F830103C
:1009D0004FF4A272012081F880021A601A6842F076
:1009E00020021A60704740F203121A6070474FF4F9
:1009F00081721A60704700BF701B000030B4054B55
:100A0000054D064C002210211A602A6020601960F2
:100A100030BC704714D0034004D0034000D00340E2
:100A2000704700BF3F2801D8FFF786BF704700BF5F
:100A30003F2801D8FFF7A6BF704700BF2DE9F84354
:100A4000054672B6204F214B214A1B683C6812684C
:100A500062B6520102D5322B88BF013495B3C3F57B
:100A6000EA331C4EDFF86490DFF86480BF334FF444
:100A70007A72A6FB031302FB04F404EB931472B620
:100A8000D9F800103A68D8F800E062B6C1F5EA3348
:100A9000BF33A6FB03031EF0806FC4EB93134FF428
:100AA0007A7002D0322988BF013200FB0233B3F5DD
:100AB0007A7F04D3013D05D004F57A74DFE700F0B6
:100AC00039FEDCE7BDE8F883F00BFF1F18E000E01B
:100AD00004ED00E089888888F8B53F4B3F49DFF88E
:100AE0001CC13F4E3F4ADFF818E13F4D3F4C404F9D
:100AF0004FF0006018604FF0805018604FF00050C9
:100B000018604FF0804018604FF0004018600020DF
:100B1000086028234EF6FF71CCF80010CEF80030A4
:100B200033600EF5012E13602B60236005F5002560
:100B30003B6004F50024B36207F50027936206F5D5
:100B4000012602F501220EF1100E05F6E87504F6F5
:100B5000E87407F57F67103220362B602360CEF8EB
:100B600000303B6013603360224EBB619361092209
:100B70003260A7F5002706F58056203F083638601A
:100B80003160BB60F36047F8042C06F5FD2607F5DD
:100B9000FE2706F2FC76043730603960B360FB60F4
:100BA00046F8042C0836C7F8FC0F06F6FC76124807
:100BB00031602B602360026000F05EFEFFF730FFC3
:100BC0001420FFF73BFF00F0DBFC4FF48C70BDE816
:100BD000F840FFF733BF00BF04E100E004800340AA
:100BE000148003401C800340248003402C80034079
:100BF000348003400080034000900B400880034095
:100C00000C800340F0B472B61A491B4E012311F850
:100C1000014B194F9A00240742F0010505D556F8FB
:100C2000324064B156F83520BAB10133052BEED10C
:100C300062B6124B00221A70F0BC00F023BD0F4CBC
:100C40000F4D217807EB43130830013958602170AC
:100C500047F8325062B6F0BC7047084A0949137829
:100C600007EBC5040830013B6060137047F835108E
:100C700062B6F0E7701D00000000FF1FC90CFF1FE7
:100C800088004000C8004000431E032B1DD81B4AAB
:100C9000400140F0100030B4104472B6184CE25CD1
:100CA000032A1BD8DFE802F00212151703220D8871
:100CB000E25410F0080F14BFC823882343EA054309
:100CC00008314160036062B630BC704708300222D0
:100CD000EDE70522EBE708300422E8E7094A52F87D
:100CE000230038B1084A52F82300416042F823102B
:100CF00062B6E9E742F82310034AF7E70000FF1F56
:100D0000D80CFF1FA00CFF1FB00CFF1F2DE9F04FE8
:100D1000DFF814B3DFF814A387B044E0AD4F4FEA17
:100D2000930807EBC809013ED9F8042003F0080333
:100D3000F6B2A2F1080003F0FF04002B40F003819B
:100D400057F838301B0C99B222F8081C002B00F021
:100D5000F180A14B22F8064C42F8044C53F82620AF
:100D6000002A00F06C819D4D55F8263058609C4C4F
:100D700045F8260034F81630194424F8161000F00F
:100D800061FC002800F05481964A974B19F0080F37
:100D900000F1080018BF1346C9F8040047F83830BE
:100DA00008238BF800309BF80040E4B260071BD5A5
:100DB0008E4B1B78ABB18E490A7802F0FF032AB143
:100DC000013BDBB20B70002B00F0B58389490A7838
:100DD00002F0FF032AB1013BDBB20B70002B00F0E5
:100DE000F68004238BF8003004F0080303F0FF02C0
:100DF000002B00F0D5809AF80030DBB21E098DD1AF
:100E00009C08744F57F8342007EBC401C2F38302E7
:100E1000013A49680C2A7ED8DFE802F081817D7DA5
:100E20007D7D7D7D427D7D7D07000868724B734D21
:100E300001936C4B4A68724E47F8343081B240F2ED
:100E400081646D4B6A60286000220120A1423A61F2
:100E50001A60BA61307000F2F680B1F5D06F80F0A0
:100E6000E882B1F5817F00F0D38200F2D881802939
:100E700000F04D81822940F09282A988614B01F0F7
:100E80007F01042900F28C825F4C89000B442270A0
:100E900062701A78930740F13883207002203AE19B
:100EA000554B01931A6862B3584B5949544E1888F0
:100EB0000C7896F800E04028054684F0010C28BF25
:100EC000402544F00204BEF1000F81F800C0A0EB01
:100ED000050007EBC40C0CBF8821C82180B28EF03E
:100EE000010E41EA0541CCF80420188086F800E0A4
:100EF0002A4447F8341010B9402D18BF0022019B36
:100F00001A603E4B1A88B2F5A06F04D100219A787E
:100F10005970404B1A70404A0123137040E7374A1A
:100F2000158842F22100854200F052812D4A47F88F
:100F30003420F0E72B4A2C4B19F0080F18BF13464A
:100F400047F838302CE700F09DFB344A344952F81A
:100F50002630002B00F02D8158688C5D42F8260069
:100F600003F10802C9F80420032C05D8DFE804F0D7
:100F7000120F150204228A551A8819F0080F0CBFA7
:100F80008823C82343EA024347F8383008E702229F
:100F90008A55F1E703228A55EEE705228A55EBE7E9
:100FA000E00700F17881210600F1A281A20706D5B1
:100FB0001C4A1D4913780220DBB213700870E30647
:100FC00002D5194B10221A7007B0BDE8F08F00F05F
:100FD0008DFB06E70000FF1F4C0CFF1FF80BFF1FE7
:100FE0001C0DFF1FC800400088004000D40CFF1FEC
:100FF0005D0CFF1FDC0CFF1FF40BFF1FC00CFF1F5D
:101000005C0CFF1FC0200740CC0CFF1F080CFF1F0B
:10101000C80CFF1F9820074094200740A00CFF1F1A
:10102000D80CFF1F882007408020074090200740F1
:10103000B74A47F83800137801331370B0E643F825
:101040002600B44D93E642F22104A14200F0AD80A7
:1010500000F20E81B1F5086F00F05481B1F5106F08
:1010600040F09D81AC4AA9781170AC4D042402E097
:101070000134142C0CD057F834301906F8D505EB90
:10108000C40301345868083800F0FCFA142CF2D17B
:10109000A349A44BA44A0291A449A54C9D4D039495
:1010A00005964FF0000988461C46164604952068B0
:1010B00028B1456800F0E6FA2846002DF9D1002352
:1010C0002360049B30681A46002342F8293028B177
:1010D000456800F0D7FA2846002DF9D10022326089
:1010E000029A98F800301146002241F8042B039A26
:1010F0000291023B4FF0000122F81910032B00F27D
:10110000B481DFE813F0E201AE01E201AE01894CE7
:10111000022022706270EA88824280F00D82864945
:101120000D78402A45F0020E944607EBCE0028BF0A
:101130004FF0400C04EB0C0344600293CCEB020034
:101140004FEA0C484FF001090022C82444EA080382
:1011500085F0010447F83E3032700C70DFF8BCE1D6
:10116000764BDFF8D481002840F02081BCF1400F9D
:101170001BD144F0020407EBC403029FDFF89CE19B
:101180005F60002A40F02781020442F0880286F85E
:1011900000900D7007444EF834203B46402804D19F
:1011A0000020674A019910800B60664A0123137082
:1011B000B1E68B5D032B00F2248101A252F823F0EB
:1011C000A10D0000A10D0000E5120000EB120000CF
:1011D000928862B95C4ACD1D11F8013B02F8013FCB
:1011E0008D42F9D1594A1268862A00F0C9805249C5
:1011F000524E0878327840F0020580F00100087005
:1012000007EBC501002A4FF00000486082F00102A0
:101210000CBF8821C82147F83510327086E640F2AD
:101220000232914240F0B080A98801F07F01042988
:1012300000F2B5806A88002A40F0B180444C8900F1
:101240000C448146217841F0020121700020029077
:1012500080468446044638490D7845F0020E07EB77
:10126000CE03B9F1000F5C600CBF8824C8246DE781
:1012700042F22124A14240F08E80A988002940F04A
:101280004281344B344A354C1B68AD78136081463B
:101290000A462570DAE72B49204B3148264EDFF805
:1012A000B0C0304DDFF8D4E02F4F02240C702F4C2B
:1012B00018605C6098602E48D8601A619A610D23AE
:1012C00032702C4C8CF800302B4EFF232B700120F9
:1012D0009F258EF800303A7033702570087007B083
:1012E000BDE8F08F00238B555AE501238B5557E558
:1012F0001749224B80220D2008701A70A2077FF533
:101300005EAE55E6044A0B4C1278227003E700BF2C
:10131000C90CFF1FF80BFF1FD40CFF1F0000FF1F9D
:10132000B00CFF1F4C0CFF1FA00CFF1FD80CFF1FA1
:101330001C0DFF1FCC0CFF1FC80CFF1F5C0CFF1FF8
:10134000080CFF1F94200740230DFF1F240DFF1FD3
:10135000C0200740F00BFF1F2C0DFF1FE80CFF1FE4
:101360008800400088200740982007400C0CFF1F91
:10137000600CFF1F842007408C200740802007401E
:10138000754A0F21117032E7B1F5A06F07D1002225
:101390004FF001095AE742F221329142F7D06F4BE8
:1013A0000F221A706E4A01231370B4E540287FF6AD
:1013B000E0AE44F002040EEBC401029E4E60AAB1FE
:1013C00083F80090674A88F800503346403840332D
:1013D0004EF83420E5E6029B86F80090020442F0C5
:1013E000C8020D7003444EF83420D7E683F800900D
:1013F000029B5D4A88F80050403840334EF8342054
:10140000CFE619F0080F0CBF022303238B55C7E466
:10141000A98801F07F010429C1D86A88002ABED1B9
:101420004E4C89000C448146217821F00201217044
:101430000CE74E4A5468002CB1D06888B5F804E037
:1014400003E00C325468002CA9D013888342F8D1F1
:1014500053887345F5D1000A03280CBF2078108902
:1014600059E64FF0010388F8003009F10109B9F19C
:10147000040F04F1040406F1040608F101087FF4E6
:1014800016AE3B4B059E3B4DDFF8F08000201870F8
:101490004FF0010918F8013B05F8043B1A0719D46D
:1014A0004FEA890444F0020244F00304002347F8A1
:1014B000323047F83430304B9D4209F10109E9D10F
:1014C00096F8009089F00102C0E64FF0000388F81A
:1014D0000030CAE700F0B6F818B307EB49134FEA3B
:1014E000890408305860204B47F8343000F0AAF8DF
:1014F00068B144F0010307EBC30208305060194A99
:1015000047F83320CEE78146A0E6022003E6184BD9
:1015100044F001021B7847F83200154A013313707A
:10152000C0E7134B124A1B784FEA8904013347F88E
:1015300034001370DAE700BE4028844628BF4FF01D
:10154000400C04EB0C03CCEB00004FEA0C48029378
:1015500000224FF001097EE65D0CFF1FC02007400E
:1015600094200740C800400088004000741D00001F
:10157000C90CFF1FC4200740D4200740701D000085
:101580002DE9F04100F0EAF9002323491A4601EB66
:10159000C30041F833200133142B42604FF00004A4
:1015A0001D48F4D11D491E4A0B68DFF88C801D4F81
:1015B0001D4D1E4EDFF884C0DFF884E043F4802325
:1015C0000B60136843F040731360C0F3072388F87F
:1015D000003001F52831C0F307433B70000EFF23B4
:1015E000CC3102F5C922287002F584728CF80030E3
:1015F0000F4D8EF800300F483370012308F8083C77
:1016000070260C704FF40014102107F82C3C2E703B
:1016100004601170BDE8F0810000FF1F34800440B9
:1016200000D80040B0200740B420074010200740F9
:1016300035E400E004E100E09C2007408020074002
:101640008820074072B60D480268B2FA82F30B2B6D
:1016500010DC4FF00041D94022EA0102026062B67C
:10166000074803EBC303DB00C2180021C15010463A
:101670005160704762B60020704700BFF806FF1F38
:101680009803FF1F0D4B0E4AC31AA2FB03231B092D
:101690000B2B0CD80B4A127852B972B60A484FF08D
:1016A0000041026821FA03F31A43026062B67047F0
:1016B000064A1278002AF0D0FFF7A4BA9803FF1F59
:1016C000398EE338C90CFF1FF806FF1FD40CFF1F2B
:1016D000044B054A1B6890881BB11A885B88D31A93
:1016E00018447047E40CFF1F1C0DFF1F38B50E4B4C
:1016F0001B7873B90D4C216861B103F0FF054B886D
:101700000B800420FFF7C0FA256038BD084B01228A
:101710001A7038BDFFF796FF0028F7D00146BDE8E4
:1017200038400420FFF7B0BADD0CFF1FE00CFF1FAC
:10173000DC0CFF1F2DE9F843314E337893B1314F64
:101740003A787AB90122D9073A7036D49A0719D46F
:1017500000225B073A7005D52B4B1A6812B1EFF3E4
:1017600005820AB1BDE8F883EFF3108172B61868FC
:1017700018B1264C2278002A2ED00029F2D162B668
:10178000BDE8F883DFF8908098F80020002ADFD0C9
:10179000DFF88890002405E0013498F80030E4B2C6
:1017A000A34212D959F824502B6828461B69984740
:1017B0000028F1D02B699847EEE7FFF789FFC8B9F9
:1017C000134B1B781BB93378C0E73378C0E7337805
:1017D00003F0FE033370B9E745691D6001232370F0
:1017E0005DB1AA6101B962B6002545778368984763
:1017F0002570B7E700F0B0F8E2E7064B1D60F1E7AF
:10180000FC06FF1FE90CFF1FF80CFF1FFC0CFF1F5D
:10181000FF06FF1FF40CFF1F180DFF1F000DFF1F19
:1018200070B5EFF3108272B60C4C206880B10C4E8C
:1018300000254369236073B19D6102B962B64577A3
:1018400083689847EFF3108272B620680028F0D1C1
:1018500002B962B670BD3360EFE700BFEC0CFF1F4A
:10186000F00CFF1FFFF7DCBF024A1368013313605F
:10187000704700BFF00BFF1F30B42948294A2A4B9C
:101880002A4D6024E121047011701B78284C082B2C
:1018900030D00A2B2748284937D00C2B0CBF3522D3
:1018A0005D2212232A60236002600B60234B2449CF
:1018B0001B78244ABBB101230B601360224B2349E0
:1018C0001B78234A012B26D9042B0FD9082B1ED9AC
:1018D000102B94BF862387230B6013601D4B0122BE
:1018E0001A7030BC70470B601360E7E784230B600D
:1018F0001360F3E700F58E200F49083021221323EF
:101900002A60236002600B60D0E73922F7E7852365
:101910000B601360E2E780230B601360DEE700BF1B
:101920000040074001400740FD06FF1F08B003408C
:101930000CB0034008B00B400CB00B401A0DFF1F59
:1019400020B0034020B00B40FE06FF1F24B0034030
:1019500024B00B40190DFF1F704700BF72B6184A24
:10196000184B19491160702280211A701A4619709B
:1019700013781B06FCD510B5144B84B0186862B6FA
:10198000134B144C984298BF00EB800001A998BFFC
:1019900040000A2200F020F801A92046002311F897
:1019A000012B01333AB10A2B20F8022FF7D116236D
:1019B000237004B010BD5B00DBB2237004B010BD17
:1019C0000400024000000240000007410C000240F9
:1019D0007F9698008C07FF1FF0B44D1E2E46002402
:1019E00000E00134B0FBF2F302FB1300092800F120
:1019F00030078ABF3730F8B2C0B206F8010F184678
:101A0000002BEED10A1953704CB1107815F8016F04
:101A100028700133E01A834202F80169F5DB0846B9
:101A2000F0BC704770B50F4E0F4D761BB61018BF47
:101A3000002405D0013455F8043B9847A642F9D15B
:101A40000A4E0B4D761B00F0C1F9B61018BF0024EA
:101A500006D0013455F8043B9847A642F9D170BD31
:101A600070BD00BFD81D0000D81D0000E81D00009B
:101A7000D81D0000024B13B1024800F005B87047B2
:101A800000000000951A0000002301461A4618467F
:101A900000F014B838B5074D074C2C1BA41005D026
:101AA000013C55F8043D9847002CF9D1BDE8384079
:101AB00000F09AB900000000000000002DE9F04796
:101AC000254C2568D5F848410646884692469946F1
:101AD000C4B360681F2817DC431C76B104EB800593
:101AE0000122C5F888A0D4F8881182401143022E43
:101AF000C4F88811C5F808911ED00230636044F81C
:101B000020800020BDE8F087144B03B34FF4C87069
:101B1000AFF300800446D0B1D5F84831002780E803
:101B20008800C5F8484138460123C4F88871C4F8D4
:101B30008C71002EE1D0D1E7D4F88C110A43C4F89F
:101B40008C21DAE705F5A674C5F84841C1E74FF0E6
:101B5000FF30BDE8F08700BFC81D00000000000096
:101B60006FF07F030370037813F0800FFBD0704792
:101B70004008FE4340A004404408FE4344A0044003
:101B80000018FE4300C004403000FE433090044083
:101B90003400FE43349004401C18FE431CC0044033
:101BA0001018FE4310C004400818FE4308C004404B
:101BB0000C18FE430CC004400C10FE430CB0044053
:101BC0001010FE4310B004401810FE4318B004403B
:101BD0001C10FE431CB004401410FE4314B004401B
:101BE0000418FE4304C004400010FE4300B004404B
:101BF0000008FE4300A004400408FE4304A0044083
:101C00000C08FE430CA004400808FE4308A0044052
:101C10001418FE4314C004401818FE4318C00440B2
:101C20000410FE4304B004400810FE4308B0044012
:101C30006820FE4368D004401400FE431490044022
:101C40003800FE43389004403C00FE433C90044082
:101C50004000FE43409004404808FE4348A0044032
:101C60004C08FE434CA004402808FE4328A0044032
:101C70002C08FE432CA004406020FE4360D00440AA
:101C80006420FE4364D004402010FE4320B0044092
:101C90002410FE4324B004402810FE4328B0044022
:101CA0002C10FE432CB004404400FE4344900440FA
:101CB0007000FE43709004407400FE437490044032
:101CC0006800FE43689004405008FE4350A0044062
:101CD0005808FE4358A004405C08FE435CA0044042
:101CE0005408FE4354A004402018FE4320C0044082
:101CF0002418FE4324C004401008FE4310A00440F2
:101D00001408FE4314A004403818FE4338C00440B1
:101D10003418FE4334C004403018FE4330C0044041
:101D20003C18FE433CC004402C18FE432CC0044029
:101D30002820FE4328D004402C20FE432CD0044011
:101D40000020FE4300D004400420FE4304D00440A1
:101D50000820FE4308D004400C20FE430CD0044071
:101D60001020FE4310D004401420FE4314D0044041
:101D700000151915000100000007FF1F12000000E8
:101D8000000200002C07FF1F4300000000030000BA
:101D90008807FF1F00000000010309041407FF1F4C
:101DA00000000000020309047007FF1F000000008C
:101DB000030309048C07FF1F00000000000000005F
:101DC0000000000000000000A807FF1FF8B500BFDA
:101DD000F8BC08BC9E467047751A00003504000028
:081DE000B104000081050000C0
:041DE800F8B500BF8B
:101DEC00FFFFFFFF010A0401120110010200004075
:101DFC00C01683047602010203010000180354008C
:101E0C00650065006E007300790064007500690060
:101E1C006E006F0009024300020100C03209040089
:101E2C00000102020100052400100105240101013A
:101E3C000424020605240600010705820310004055
:101E4C0009040100020A000000070503024000001B
:101E5C0007058402400000001603550053004200A1
:101E6C002000530065007200690061006C000000E6
:101E7C00040309040C030000000000000000000033
:101E8C000000000000000000000000000000000046
:101E9C0000000000940AFF1FFC0AFF1F640BFF1FC9
:101EAC000000000000000000000000000000000026
:101EBC000000000000000000000000000000000016
:101ECC000000000000000000000000000000000006
:101EDC0000000000000000000000000000000000F6
:101EEC0000000000000000000000000000000000E6
:101EFC0000000000000000000000000000000000D6
:101F0C0000000000000000000000000000000000C5
:101F1C0000000000000000000000000000000000B5
:101F2C0000000000000000000000000000000000A5
:101F3C000000000000000000010000000000000094
:101F4C000E33CDAB34126DE6ECDE05000B00000059
:101F5C000000000000000000000000000000000075
:101F6C000000000000000000000000000000000065
:101F7C000000000000000000000000000000000055
:101F8C000000000000000000000000000000000045
:00000001FF
