:100000000C94CD000C94F5000C94F5000C94F500C4
:100010000C94F5000C94F5000C94F5000C94F5008C
:100020000C94F5000C94F5000C943E040C94AD0473
:100030000C94F5000C94F5000C94F5000C94F5006C
:100040000C94F5000C94F5000C94F5000C94F5005C
:100050000C94F5000C94F5000C94F5000C94F4034A
:100060000C94F5000C94F5000C94F5000C94F5003C
:100070000C94F5000C94F5000C94F5000C94F5002C
:100080000C94F5000C94F5000C94F5000C94F5001C
:100090000C94F5000C94F5000C94F5000C94F5000C
:1000A0000C94F5000C94F5000C94F500080B00027C
:1000B0000202000009040000010202000005240001
:1000C0001001052401010104240206052406000193
:1000D0000705810310004009040100020A00000026
:1000E00007050202400000070583024000000403E8
:1000F000090412010002EF02014041233780000190
:100100000102030141726475696E6F204C4C43001B
:1001100041726475696E6F204D6963726F000000F3
:100120000000240027002A002D00300000000000FD
:10013000250028002B002E003100040404040403D1
:100140000405020202020403020202020606060677
:10015000060604040202020404040802011040809E
:10016000401020408040800802040180402010029E
:1001700001108010204040200000000200090F0004
:1001800000030401000C000000000000000000005B
:100190000000000000000000120711241FBECFEF76
:1001A000DAE0DEBFCDBF11E0A0E0B1E0E4E4F2E1CF
:1001B00002C005900D92A634B107D9F721E0A6E45C
:1001C000B1E001C01D92A73BB207E1F710E0CDEC12
:1001D000D0E004C02197FE010E941A09CC3CD1074F
:1001E000C9F70E942B070C9420090C940000E5E845
:1001F000F1E02491E6E6F1E03491E7E4F1E0949156
:10020000992309F430C02223E9F021502F30D0F493
:10021000E22FF0E0E25FFE4F0C941A093C0140012E
:100220001D0134013801220122012201430149014B
:100230004D015101570122015B01209180002F7770
:1002400020938000E92FF0E0EE0FFF1FE45DFE4FEA
:10025000A591B4919FB7F894EC91811132C030957B
:100260003E233C939FBF0895209180002F7DE8CFCF
:1002700020918000277FE4CF24B52F7724BDE2CFE3
:1002800024B52F7DFBCF209190002F7720939000F5
:10029000D9CF209190002F7DF9CF20919000277F1A
:1002A000F5CF2091C0002F772093C000CBCF2091B5
:1002B000C0002F7DF9CF2091C200277F2093C2007C
:1002C000C1CF3E2BCECFFC0180916401882311F178
:1002D0003FB7F89482E08093E9002091F200822FEA
:1002E00090E01816190614F481E090E0882339F0A4
:1002F000289A44E6409363014091F1004083222311
:1003000039F02091F200211103C02BE62093E80080
:100310003FBF08958FEF9FEF08952FB7F89483E0C4
:100320008093E9009091E800892F807295FF04C0C6
:100330009091F20080E4891B2FBF089580915B01AA
:1003400081110DC082E08093570184E080935801B1
:1003500010925A011092590181E080935B0187E568
:1003600091E008953FB7F894809153019091540122
:10037000A0915501B091560126B5A89B05C02F3F0D
:1003800019F00196A11DB11D3FBFBA2FA92F982FBB
:100390008827BC01CD01620F711D811D911D42E0B6
:1003A000660F771F881F991F4A95D1F708958F927E
:1003B0009F92AF92BF92CF92DF92EF92FF924B014A
:1003C0005C010E94B2016B017C010E94B2016C19B8
:1003D0007D098E099F09683E734081059105A8F348
:1003E00021E0821A9108A108B10888EEC80E83E0C6
:1003F000D81EE11CF11C81149104A104B10429F759
:10040000FF90EF90DF90CF90BF90AF909F908F9034
:100410000895409148015091490120914601309141
:10042000470142175307B4F49091E8009570E1F347
:100430009091E80092FD19C08093F10080914801ED
:100440009091490101968F739927892B19F48EEFAA
:100450008093E80080914801909149010196909322
:1004600049018093480181E0089580E00895DF927A
:10047000EF92FF920F931F93CF93DF93D82E8A01B1
:10048000EB017B01E40EF51ECE15DF0559F0D7FE1A
:1004900012C0FE0184910E94090221968111F4CFBD
:1004A0000FEF1FEFC801DF91CF911F910F91FF90C8
:1004B000EF90DF9008958881EECF0F931F93CF9335
:1004C000DF931F92CDB7DEB782E0898342E450E02C
:1004D0006CEA70E080E80E9437020E949E01DC0115
:1004E00012960D911C910115110589F0D801ED911D
:1004F000FC910280F381E02DBE016F5F7F4FC80148
:10050000099597FD04C0F80100851185ECCF89811C
:100510000F90DF91CF911F910F910895615030F0AE
:100520002091F100FC0120830196F8CF289A84E6FF
:100530008093630108958F929F92AF92BF92CF9262
:10054000DF92EF92FF920F931F93CF93DF936C0193
:100550007B018A0180910B01882309F45CC08091A2
:100560006401882309F457C080914C0180FF05C0C5
:100570008091E00082608093E000E801B12C8AEF76
:10058000A82E93E0892E2AE3922E209711F4BB2007
:10059000D9F10E948D0181110AC0AA94AA20D9F133
:1005A00061E070E080E090E00E94D701EECF8C1710
:1005B0001D0611F00CF08C2F9FB7F8948092E90083
:1005C0002091E80025FD02C09FBFDFCF282F30E03B
:1005D000C21BD30BF701815020F041914093F100F1
:1005E000FACFE20EF31EBB2021F09092E800B12C6E
:1005F000EBCF8091E80085FDE7CF9092E800BB2427
:10060000B394209709F3F3CF5D9A84E680934B016E
:10061000101611063CF081E090E0F601938382838E
:1006200010E000E0C801DF91CF911F910F91FF9082
:10063000EF90DF90CF90BF90AF909F908F900895F4
:10064000CF93DF931F92CDB7DEB76983DC01ED91C5
:10065000FC910280F381E02D41E050E0BE016F5F2C
:100660007F4F09950F90DF91CF91089583E080939C
:10067000E9008091F200882319F08AE38093E80072
:1006800008950E948D0190E00895CF93DF931F920B
:10069000CDB7DEB7FC018485958597FD08C02FEFA7
:1006A0003FEF358724870F90DF91CF910895CE01DA
:1006B00001960E946301019719F4898190E0F3CFBC
:1006C0008FEF9FEFF0CF0F931F93CF93DF931F9286
:1006D000CDB7DEB78C01FC018485958597FF0BC0F3
:1006E000CE0101960E946301019771F4898190E027
:1006F000F80195878487F801848595850F90DF91AF
:10070000CF911F910F9108958FEF9FEFF1CFFC01D3
:100710008485958597FD0BC09FB7F89482E0809300
:10072000E9008091F2009FBF90E0019608959FB785
:10073000F89482E08093E9008091F2009FBF90E0FE
:100740000895FC0101900020E9F73197AF01481BA3
:10075000590BBC0185E691E00C949B028F929F920D
:10076000AF92BF920F931F93CF93DF93CDB7DEB7B6
:10077000A1970FB6F894DEBF0FBECDBF19A24230CD
:1007800008F44AE08E010F5D1F4F842E912CB12C8E
:10079000A12CA50194010E94F808E62FB901CA0115
:1007A000EA30F4F4E05DD801EE938D01232B242B85
:1007B000252B79F790E080E0109719F0CD010E9489
:1007C000A103A1960FB6F894DEBF0FBECDBFDF9197
:1007D000CF911F910F91BF90AF909F908F900895F0
:1007E000E95CE1CF0C94A1031F920F920FB60F9218
:1007F00011242F933F938F939F93AF93BF93809137
:100800004F0190915001A0915101B091520130914E
:100810004E0123E0230F2D3758F50196A11DB11D80
:1008200020934E0180934F0190935001A09351016A
:10083000B09352018091530190915401A0915501C0
:10084000B09156010196A11DB11D80935301909363
:100850005401A0935501B0935601BF91AF919F9160
:100860008F913F912F910F900FBE0F901F90189571
:1008700026E8230F0296A11DB11DD2CF1F920F9221
:100880000FB60F9211248F939F938091E100909166
:10089000E100937F9093E10083FF0FC01092E90085
:1008A00091E09093EB001092EC0092E39093ED00B6
:1008B0001092640198E09093F00082FF22C093E0D0
:1008C0009093E9009091F200992319F09AE39093A4
:1008D000E80090914B01992341F090914B01915088
:1008E00090934B01911101C05D9890916301992300
:1008F00041F090916301915090936301911101C077
:10090000289884FF18C08091E2008E7E81608093D9
:10091000E2008091E1008F7E8093E10080914C01A4
:100920008E7E806180934C019F918F910F900FBEBE
:100930000F901F90189580FFF7CF8091E2008E7E78
:1009400080618093E2008091E1008E7E8093E100DF
:1009500080914C018E7E8160E5CF1F920F920FB681
:100960000F921124CF92DF92EF92FF920F931F9379
:100970002F933F934F935F936F937F938F939F93A7
:10098000AF93BF93EF93FF93CF93DF93CDB7DEB7D2
:100990006C97DEBFCDBF1092E9008091E80083FF25
:1009A00025C068E0CE0145960E948E0282EF8093BA
:1009B000E8008D8987FF39C09091E80090FFFCCF57
:1009C000982F907609F034C19E894F89588D2F89D0
:1009D000F88C911131C0803861F580914D01809380
:1009E000F1001092F1008EEF8093E8006C960FB644
:1009F000F894DEBF0FBECDBFDF91CF91FF91EF9195
:100A0000BF91AF919F918F917F916F915F914F9126
:100A10003F912F911F910F91FF90EF90DF90CF901A
:100A20000F900FBE0F901F9018959EEF9093E800C7
:100A3000C7CF1092F100D5CF913059F48111D3CFA7
:100A40004130510581F680914D018D7F80934D019C
:100A5000CACF933049F48111C6CF4130510519F600
:100A600080914D018260F2CF953041F48091E80091
:100A700080FFFCCF20682093E300B5CF963009F0CB
:100A8000A9C00B8D1C8D22E01092E9001092490143
:100A900010924801F2122EC01092470110924601A6
:100AA0000E945D021F8299E09983FA8291E09E8301
:100AB00090EA98879AEF99872091480130914901EF
:100AC000275F3F4F3C832B838D831092E900109268
:100AD000490110924801109347010093460149E0F3
:100AE00050E0BE016F5F7F4F80E00E9437020E949E
:100AF0005D0279CF10934701009346010E949E0149
:100B0000DC0112960D911C910115110509F451C1DA
:100B1000D801ED91FC910480F581E02DBE016B5E62
:100B20007F4FC8010995009709F03EC1F801008583
:100B30001185EACFF3E0FF120EC08F89882309F4F4
:100B400040C0823061F440E86DE080E191E00E94B5
:100B5000DF06811148CF81E28093EB0047CF8130DF
:100B600029F440E86BE084E091E0F1CF833099F71D
:100B70000E949E01DC011296ED90FC908E010F5FA9
:100B80001F4F6801E114F10479F0D701ED91FC9158
:100B90000680F781E02DB801C7010995080F111DE6
:100BA000F701E084F184EECFD8011C92F6010190A8
:100BB0000020E9F73197BF016C197D0940E0C601BB
:100BC000C6CF6EEE70E0FB01449150E080E80E94D9
:100BD000370209CF973009F4BECF983021F481E075
:100BE0008093F10000CF993009F0FDCE837009F0B9
:100BF000B2CFEDE0F1E081E031E096E321912223F4
:100C000071F08093E9003093EB00DF0111972C9194
:100C10002093EC009093ED008F5F873079F78EE79B
:100C20008093EA001092EA008F8980936401DBCE02
:100C30008B8D9C8D1092E900109249011092480111
:100C40009093470180934601898D811192C08E89CE
:100C50009D89913A49F4813209F07DCF47E050E017
:100C600064E071E080E0B3CF913209F074CF833259
:100C700069F48F89988DB0E0A0E080930001909393
:100C80000101A0930201B0930301ADCE803269F45B
:100C90008091E80082FFFCCF67E084E091E00E9451
:100CA0008E028BEF8093E8009ECE823209F09BCEBD
:100CB0008F8980930B01EEEFFFE7859194918B3F35
:100CC0009C4D51F1E0E0F8E0809104019091050124
:100CD000A0910601B0910701803B9440A105B105A8
:100CE000F1F480910B0180FD1AC0EE3F8AE0F80715
:100CF00089F587E797E791838083809160008093EF
:100D00004A0188E19BE00FB6F894A89580936000B3
:100D10000FBE9093600067CEEEEFFAE0D5CF8081F2
:100D200091818737974709F05ECEA8958091600042
:100D300088618093600080914A0180936000EE3F5B
:100D40002AE0F20789F08091FE0A9091FF0A9183D0
:100D5000808349CE808191818737980751F29093A3
:100D6000FF0A8093FE0AC5CF1092FF0A1092FE0A76
:100D70003ACE0E949E01DC0112960D911C91011544
:100D8000110509F4E8CED801ED91FC910190F081B4
:100D9000E02DBE016B5E7F4FC8010995811123CE06
:100DA000F80100851185EBCF181619060CF41BCE3F
:100DB000D2CEF1E0FF12BECE62EF70E004CFEF9230
:100DC000FF920F931F93CF93DF93F82E192FE62EE8
:100DD000042F81E0860F880F0E94090283E00E94A1
:100DE0000902CF2DD12FEC0EFD2EF11CCE15DF0503
:100DF000B9F007FF13C0FE0184910E940902182F69
:100E000080E00E940902812321968111EFCFDF91BA
:100E1000CF911F910F91FF90EF9008958881EDCFB2
:100E200081E0F5CFE5E6F1E01382128288EE93E0EF
:100E3000A0E0B0E084839583A683B78387E191E047
:100E4000918380838FEF9FEF958784871092B601FF
:100E50001092B5010895CF93DF93CDB7DEB77894A4
:100E600084B5826084BD84B5816084BD85B58260AF
:100E700085BD85B5816085BD80916E008160809360
:100E80006E001092810080918100826080938100C9
:100E900080918100816080938100809180008160D9
:100EA0008093800080919100826080939100809176
:100EB0009100816080939100809190008160809387
:100EC00090008091C10084608093C1008091C10036
:100ED00082608093C1008091C10081608093C100D5
:100EE0008091C30081608093C3008091C0008260C4
:100EF0008093C0008091C20081608093C200809185
:100F00007A00846080937A0080917A008260809376
:100F10007A0080917A00816080937A0080917A00D3
:100F2000806880937A001092640110924D011092B3
:100F30004C018091D70081608093D70080EA809334
:100F4000D80089B5806189BD89B5826089BD09B441
:100F500000FEFDCF61E070E080E090E00E94D701EC
:100F60008091D8008F7C80618093D8008091E000D0
:100F7000807F8093E0008091E1008E7E8093E1008D
:100F80008DE08093E200559A209A5D98289880E041
:100F900094E09093B6018093B501E6E6F1E02491E8
:100FA000E7E4F1E08491882399F090E0880F991F9D
:100FB000FC01E25EFE4FA591B491FC01E45DFE4FA1
:100FC000859194918FB7F894EC91E22BEC938FBFBD
:100FD0008FEF9FEF909372018093710110910B013D
:100FE0006AE070E080E090E00E94D701111107C034
:100FF0006AE070E080E090E00E94D701EFCF87E2E6
:1010000091E00E94F2034AE060E074E080E090E04A
:101010000E94AE0389E391E00E94A10387E291E080
:101020000E94F2034AE060E074E080E090E00E94F9
:10103000AE0389E391E00E94A10390E2492E512C76
:10104000612C712CC12CD12C760186014AE0C7019C
:10105000B6010E94AE038CE391E00E94F2035201BC
:101060004AE0C301B2010E94AE0386E391E00E9410
:10107000F20381E491E00E94F2030A151B05A0F43B
:101080008091B5019091B6010817190758F4C8016D
:101090000E94F008682F85E691E00E9420030F5F10
:1010A0001F4FEBCF80E0F6CF82E491E00E94A103D6
:1010B00089E391E00E94A10380E2C80ED11CE11CEB
:1010C000F11C80E2480E511C611C711CC11484E0AB
:1010D000D806E104F10409F0B8CF80E2482E512C83
:1010E000612C712CC12CD12C760186014AE0C701FC
:1010F000B6010E94AE038CE391E00E94F20352011C
:101100004AE0C301B2010E94AE0386E391E00E946F
:10111000F20381E491E00E94F2030A151B0540F5F9
:101120008091B5019091B601912C0817190720F410
:10113000C8010E94F008982E83E491E00E94F20317
:101140008FE0891590F482E491E00E94F203692D0A
:1011500070E090E080E040E10E94AE0387E391E020
:101160000E94F2030F5F1F4FD8CF85E291E0EDCFD1
:1011700082E491E00E94A10389E391E00E94A1032F
:1011800080E2C80ED11CE11CF11C80E2480E511C0B
:10119000611C711CC11484E0D806E104F10409F05B
:1011A000A4CF0FB6F894DEBF0FBECDBF00E010E0B5
:1011B00081E00E94F70068EE73E080E090E00E941A
:1011C000D70180E00E94F70068EE73E080E090E0D5
:1011D0000E94D7010115110559F30E940000E8CFC4
:1011E000F999FECF92BD81BDF89A992780B50895EF
:1011F000A1E21A2EAA1BBB1BFD010DC0AA1FBB1F1B
:10120000EE1FFF1FA217B307E407F50720F0A21B8C
:10121000B30BE40BF50B661F771F881F991F1A94F9
:1012200069F760957095809590959B01AC01BD0123
:10123000CF010895EE0FFF1F0590F491E02D099462
:04124000F894FFCF50
:10124400FFFFFFFF00E100000000000000C18081FB
:101254000000000000000020039B024103360387C6
:10126400034503630330004E756D626572206F663B
:101274002042797465733A20000D0A0020746F20AF
:06128400000900307800B3
:00000001FF
