:100000000C9428010C9459010C9459010C94590139
:100010000C9459010C9459010C9459010C945901F8
:100020000C9459010C9459010C9459010C945901E8
:100030000C9459010C9459010C9459010C945901D8
:100040000C9459010C9459010C9459010C945901C8
:100050000C9459010C9459010C9459010C94C5034A
:100060000C9459010C9439040C940F040C9459010C
:100070000C9459010C9459010C9459010C94590198
:100080000C9459010C9459010C9459010C94590188
:100090000C9459010C9459010C9459010C94590178
:1000A0000C9459010C9459010C9459010C94590168
:1000B0000C9459010C9459010C9459010C94590158
:1000C0000C9459010C9459010C9459010C94590148
:1000D0000C9459010C9459010C9459010C94590138
:1000E0000C9459010C94CF010C94BD010C946F0435
:1000F0000C9487010C94D4020C94B7010C94AD01BC
:100100000C94D9010C94C1010C947A020C94CB018B
:100110000C94C5010C949E010C943E020C94210396
:100120000C94A6010C94DD010C94AA010C94A2017C
:100130000C948E020C94D3010C948C010C94B3019A
:100140000C946B020C949C020000210024002700F8
:100150002A002D00300033000101000004010701D6
:100160000A0100002200250028002B002E0031008B
:10017000340002010000050108010B010505050519
:10018000070508080808020202020A0A080804040F
:10019000040401010101010101010303030303033D
:1001A0000303040707070C0C0C0C0C0C0C0C0202CC
:1001B000020206060606060606060B0B0B0B0B0BC9
:1001C0000B0B010210202008081020401020408056
:1001D000020102010804020101020408102040800B
:1001E0008040201008040201800402018040201099
:1001F00008040201080402010102040810204080E2
:10020000010204081020408000000A0B02090C0DB6
:100210000E080703040100000000000000000000B9
:1002200000000000000000000000000000000000CE
:10023000000000001211100000000000000000008B
:1002400000000000000000000000000000006F043B
:1002500011241FBECFEFD1E2DEBFCDBF00E00CBF47
:1002600012E0A0E0B2E0E4E0FDE000E00BBF02C07D
:1002700007900D92A433B107D9F722E0A4E3B2E0CE
:1002800001C01D92AC3DB207E1F711E0C8E2D1E038
:1002900000E006C021970109802FFE010E94780628
:1002A000C732D10780E00807A9F70E94A0040C9488
:1002B00080060C940000382FE5E1F2E08491EFEC29
:1002C000F1E02491E9E8F1E09491992309F435C033
:1002D000882311F181508231F8F4E82FF0E088276B
:1002E000EB58FE4F8F4F0C947806A601AA018701A8
:1002F0009E01A2018C01AD01B301B701BD01C10195
:10030000C501CB01CF018C01D301D901DD01809161
:1003100080008F7780938000E92FF0E0EE0FFF1FC1
:10032000EE59FE4FA591B4918FB7F894EC9131112D
:1003300048C020952E232C938FBF08958091800074
:100340008F7DE8CF80918000877FE4CF84B58F7761
:1003500084BDE2CF84B58F7DFBCF8091B0008F77D5
:100360008093B000D9CF8091B0008F7DF9CF80917C
:1003700090008F7780939000CFCF809190008F7DF9
:10038000F9CF80919000877FF5CF8091A0008F7783
:100390008093A000C1CF8091A0008F7DF9CF809184
:1003A000A000877FF5CF809120018F778093200177
:1003B000B3CF809120018F7DF9CF80912001877F7D
:1003C000F5CF2E2BB8CF3FB7F8948091390290919A
:1003D0003A02A0913B02B0913C0226B5A89B05C011
:1003E0002F3F19F00196A11DB11D3FBFBA2FA92FB4
:1003F000982F8827BC01CD01620F711D811D911DB1
:1004000042E0660F771F881F991F4A95D1F708951C
:100410008F929F92AF92BF92CF92DF92EF92FF9214
:100420000E94E3014B015C0188EEC82E83E0D82EC8
:10043000E12CF12C0E94E301681979098A099B09D2
:10044000683E734081059105A8F321E0C21AD108E6
:10045000E108F10888EE880E83E0981EA11CB11C0B
:10046000C114D104E104F10429F7FF90EF90DF906B
:10047000CF90BF90AF909F908F900895AF92BF9212
:10048000CF92DF92EF92FF920F931F93CF93DF9360
:100490006C017B018B01040F151FEB015E01AE188F
:1004A000BF08C017D10759F06991D601ED91FC91B1
:1004B0000190F081E02DC6011995892B79F7C501CE
:1004C000DF91CF911F910F91FF90EF90DF90CF9030
:1004D000BF90AF900895FC01538D448D252F30E0DF
:1004E000842F90E0821B930B541710F0CF96089541
:1004F00001970895FC01918D828D981761F0A28D6E
:10050000AE0FBF2FB11D5D968C91928D9F5F9F7333
:10051000928F90E008958FEF9FEF0895FC01918DE9
:10052000828D981731F0828DE80FF11D858D90E056
:1005300008958FEF9FEF0895FC01918D228D892FF3
:1005400090E0805C9F4F821B91098F7399270895DB
:100550008DE392E00E949C0221E0892B09F420E0C7
:10056000822F0895FC01A48DA80FB92FB11DA35AA5
:10057000BF4F2C91848D90E001968F739927848FC3
:10058000A689B7892C93A089B1898C9183708064E6
:100590008C93938D848D981306C00288F389E02D87
:1005A00080818F7D80830895EF92FF920F931F9338
:1005B000CF93DF93EC0181E0888F9B8D8C8D981316
:1005C0001AC0E889F989808185FF15C09FB7F89422
:1005D000EE89FF896083E889F9898081837080646E
:1005E00080839FBF81E090E0DF91CF911F910F91B9
:1005F000FF90EF900895F62E0B8D10E00F5F1F4FC8
:100600000F731127E02E8C8D8E110CC00FB607FCD6
:10061000FACFE889F989808185FFF5CFCE010E9464
:10062000B202F1CFEB8DEC0FFD2FF11DE35AFF4F1E
:10063000F0829FB7F8940B8FEA89FB8980818062F2
:10064000CFCFCF93DF93EC01888D8823B9F0AA89AF
:10065000BB89E889F9898C9185FD03C0808186FD7D
:100660000DC00FB607FCF7CF8C9185FFF2CF8081CC
:1006700085FFEDCFCE010E94B202E9CFDF91CF918D
:10068000089580E090E0892B29F00E94A802811152
:100690000E94000080E090E0892B49F080E090E02B
:1006A000892B29F00E94000081110E94000080E047
:1006B00090E0892B49F080E090E0892B29F00E949E
:1006C000000081110E94000080E090E0892B49F039
:1006D00080E090E0892B29F00E94000081110C94A9
:1006E00000000895FC0101900020E9F73197AF0167
:1006F000481B590BBC018DE392E00C943E028F9293
:100700009F92AF92BF920F931F93CF93DF93CDB77A
:10071000DEB7A1970FB6F894DEBF0FBECDBF19A20A
:10072000423008F44AE08E010F5D1F4F842E912C59
:10073000B12CA12CA50194010E945606E62FB90107
:10074000CA01EA30F4F4E05DD801EE938D01232B69
:10075000242B252B79F790E080E0109719F0CD013C
:100760000E947203A1960FB6F894DEBF0FBECDBFF4
:10077000DF91CF911F910F91BF90AF909F908F907D
:100780000895E95CE1CF0C9472031F920F920FB6AB
:100790000F9211242F933F938F939F93AF93BF9307
:1007A0008091350290913602A0913702B0913802C3
:1007B0003091340223E0230F2D3758F50196A11D07
:1007C000B11D209334028093350290933602A0939A
:1007D0003702B09338028091390290913A02A09189
:1007E0003B02B0913C020196A11DB11D80933902DC
:1007F00090933A02A0933B02B0933C02BF91AF9119
:100800009F918F913F912F910F900FBE0F901F904E
:10081000189526E8230F0296A11DB11DD2CF1F9275
:100820000F920FB60F9211240BB60F922F933F9396
:100830004F935F936F937F938F939F93AF93BF93E8
:10084000EF93FF938DE392E00E94B202FF91EF914C
:10085000BF91AF919F918F917F916F915F914F91D8
:100860003F912F910F900BBE0F900FBE0F901F90D6
:1008700018951F920F920FB60F9211240BB60F927C
:100880002F938F939F93EF93FF93E0914D02F091FD
:100890004E028081E0915302F091540282FD1DC00E
:1008A0009081809156028F5F8F732091570282173B
:1008B00041F0E0915602F0E0E35CFD4F958F8093AC
:1008C0005602FF91EF919F918F912F910F900BBE48
:1008D0000F900FBE0F901F9018958081F2CFEDE31F
:1008E000F2E01382128288EE93E0A0E0B0E084830D
:1008F0009583A683B78384E092E09183808385EC1F
:1009000090E09587848784EC90E09787868780ECD9
:1009100090E0918B808B81EC90E0938B828B82ECCA
:1009200090E0958B848B86EC90E0978B868B118E74
:10093000128E138E148E1092DB021092DA0208953A
:10094000CF93DF93CDB7DEB7789484B5826084BD52
:1009500084B5816084BD85B5826085BD85B58160C3
:1009600085BD80916E00816080936E001092810041
:1009700080918100826080938100809181008160FC
:1009800080938100809180008160809380008091BD
:10099000B10084608093B1008091B0008160809349
:1009A000B0008091910082608093910080919100CD
:1009B000816080939100809190008160809390008D
:1009C0008091A10082608093A1008091A10081604C
:1009D0008093A1008091A00081608093A00080910D
:1009E00021018260809321018091210181608093A7
:1009F00021018091200181608093200180917A0003
:100A0000846080937A0080917A00826080937A007B
:100A100080917A00816080937A0080917A0080686A
:100A200080937A001092C10080E090E19093DB0205
:100A30008093DA02EFECF1E02491E9E8F1E08491AF
:100A4000882399F090E0880F991FFC01E85BFE4F26
:100A5000A591B491FC01EE59FE4F859194918FB709
:100A6000F894EC91E22BEC938FBFE0914D02F09162
:100A70004E0282E08083E0914902F0914A021082A6
:100A8000E0914B02F0914C0280E18083109255027C
:100A9000E0915102F091520286E08083E0914F0292
:100AA000F0915002808180618083E0914F02F0914B
:100AB0005002808188608083E0914F02F091500263
:100AC000808180688083E0914F02F09150028081A4
:100AD0008F7D808384E192E00E94C3034AE060E05E
:100AE00070E180E090E00E947F0386E292E00E9445
:100AF000720384E192E00E94C3034AE060E070E187
:100B000080E090E00E947F0386E292E00E94720300
:100B100090E2492E512C612C712CC12CD12C7601E4
:100B200086014AE0C701B6010E947F0389E292E094
:100B30000E94C30352014AE0C301B2010E947F0335
:100B400083E292E00E94C3038EE292E00E94C3031C
:100B50000A151B05A0F48091DA029091DB020817B8
:100B6000190758F4C8010E944E06682F8DE392E0E1
:100B70000E94D4020F5F1F4FEBCF80E0F6CF8FE2D1
:100B800092E00E94720386E292E00E94720380E289
:100B9000C80ED11CE11CF11C80E2480E511C611CE6
:100BA000711CC11480E1D806E104F10409F0B8CF4A
:100BB00080E2482E512C612C712CC12CD12C760155
:100BC00086014AE0C701B6010E947F0389E292E0F4
:100BD0000E94C30352014AE0C301B2010E947F0395
:100BE00083E292E00E94C3038EE292E00E94C3037C
:100BF0000A151B0540F58091DA029091DB02912CD9
:100C00000817190720F4C8010E944E06982E80E3A9
:100C100092E00E94C3038FE0891590F48FE292E086
:100C20000E94C303692D70E090E080E040E10E94E3
:100C30007F0384E292E00E94C3030F5F1F4FD8CF6F
:100C400082E192E0EDCF8FE292E00E94720386E2B1
:100C500092E00E94720380E2C80ED11CE11CF11CDC
:100C600080E2480E511C611C711CC11480E1D80641
:100C7000E104F10409F0A4CF0FB6F894DEBF0FBE73
:100C8000CDBF81E00E945B010E94080280E00E94CB
:100C90005B010E9408020E944103F3CFF999FECF45
:100CA00092BD81BDF89A992780B50895A1E21A2EC8
:100CB000AA1BBB1BFD010DC0AA1FBB1FEE1FFF1F00
:100CC000A217B307E407F50720F0A21BB30BE40B50
:100CD000F50B661F771F881F991F1A9469F7609597
:100CE0007095809590959B01AC01BD01CF01089551
:100CF000EE0FFF1F881F8BBF0790F691E02D199410
:040D0000F894FFCF95
:100D040000000000D4023E026B0221039C027A021E
:100D14008E0230004E756D626572206F66204279D6
:100D24007465733A20000D0A0020746F20000900D6
:040D34003078000013
:00000001FF
